:020000040800F2
:1000000000190120A5020008811C0008F515000850
:100010007D1C000875050008D920000800000000BC
:10002000000000000000000000000000CD1D0008DE
:100030007905000800000000851C0008CF1D00089D
:10004000BF020008BF020008BF020008BF0200088C
:10005000BF020008BF020008BF020008BF0200087C
:10006000BF020008BF020008BF020008BF0200086C
:10007000BF020008BF020008BF020008BF0200085C
:10008000BF020008BF020008BF020008BF0200084C
:10009000BF020008BF020008BF020008BF0200083C
:1000A000BF020008BF020008BF020008BF0200082C
:1000B000BF020008BF020008BF020008BF0200081C
:1000C000BF020008BF020008BF020008BF0200080C
:1000D000BF020008BF020008BF020008BF020008FC
:1000E000BF020008BF020008BF020008BF020008EC
:1000F000BF020008BF020008BF020008BF020008DC
:10010000BF020008BF020008BF020008BF020008CB
:10011000BF020008BF020008BF020008BF020008BB
:10012000BF020008BF020008BF020008BF020008AB
:10013000BF0200080000000000000000BF0200082D
:10014000BF020008BF020008BF020008BF0200088B
:10015000BF020008BF020008BF020008BF0200087B
:10016000BF020008BF020008BF020008BF0200086B
:10017000BF020008BF020008BF0200080000000024
:1001800000000000BF0200080000000000000000A6
:10019000BF0200080000000000000000BF020008CD
:1001A000000000000000000000000000BF02000886
:1001B000BF020008BF020008BF020008BF0200081B
:1001C000BF02000800F002F800F05CF80AA090E816
:1001D000000C82448344AAF10107DA4501D100F002
:1001E00051F8AFF2090EBAE80F0013F0010F18BF73
:1001F000FB1A43F001031847D4B80400F4B8040014
:100200000A444FF0000C10F8013B13F0070408BF3C
:1002100010F8014B1D1108BF10F8015B641E05D0DA
:1002200010F8016B641E01F8016BF9D113F0080F8F
:100230001EBF10F8014BAD1C0C1B09D16D1E58BF21
:1002400001F801CBFAD505E014F8016B01F8016B58
:100250006D1EF9D59142D6D37047000000230024CB
:1002600000250026103A28BF78C1FBD8520728BFC6
:1002700030C148BF0B6070471FB532F047F81FBD53
:1002800010B510BD00F044F91146FFF7F5FF2AF054
:1002900047FF00F062F903B4FFF7F2FF03BC03F07D
:1002A000C8FE00000948804709480047FEE7FEE70E
:1002B000FEE7FEE7FEE7FEE7FEE7FEE7FEE7FEE716
:1002C00004480549054A064B70470000991E00087E
:1002D000C501000800D900200019012000F9002004
:1002E00000F90020704753EA020C00F069802DE904
:1002F000F04B4FF00006002B1FBFB3FA83F503FA53
:1003000005F424FA05F65E4012BF1643B2FA82F5F0
:1003100002FA05F4C5F120051EBF22FA05FC44EAE5
:100320000C04203556EA044C4FEA144418BF641CF0
:100330004FF000084FF00009904271EB030C39D3E5
:10034000002919BFB1FA81F701FA07F6B0FA80F770
:1003500000FA07F6C7F120071EBF20FA07FC46EA9D
:100360000C062037B6FBF4FCA7EB0507103F07F09F
:100370001F0BCBF120060CFA0BFB2CFA06F644BF40
:10038000B3460026202FA4BF5E464FF0000B5BEA69
:10039000060C08BF4FF0010B19EB0B09ABFB027CFD
:1003A00048EB0608C01B06FB02CC0BFB03CC71EB31
:1003B0000C01C1E70B46024641464846BDE8F08BBA
:1003C00013B54FF000004FF00001AFF30080BDE81F
:1003D0001C40704710B5203AC0F00B80B1E81850AF
:1003E000203AA0E81850B1E81850A0E81850BFF41F
:1003F000F5AF5FEA027C24BFB1E81850A0E81850BE
:1004000044BF18C918C0BDE810405FEA827C24BF11
:1004100051F8043B40F8043B08BF7047D20728BF9F
:1004200031F8023B48BF11F8012B28BF20F8023BEE
:1004300048BF00F8012B70474FF0000200B513468B
:1004400094469646203922BFA0E80C50A0E80C50F4
:10045000B1F12001BFF4F7AF090728BFA0E80C50A5
:1004600048BF0CC05DF804EB890028BF40F8042B9E
:1004700008BF704748BF20F8022B11F0804F18BF0B
:1004800000F8012B704700004FF0013C50F8042B9E
:1004900051F8043B9A4221D1A2EB0C03934313EA97
:1004A000CC1317D150F8042B51F8043B9A4215D1C4
:1004B000A2EB0C03934313EACC130BD150F8042B9B
:1004C00051F8043B9A4209D1A2EB0C03934313EA7F
:1004D000CC13DBD04FF00000704700BFD01A01BA38
:1004E000B1FA81F101F0180122FA01F0CB40C1F11B
:1004F0002001DBB2C0B2C01A2CFA01F3D11A914329
:1005000011EAC311E6D170477047704770477047D2
:10051000754600F02BF8AE4605006946534620F0BC
:100520000700854618B020B5FFF7CAFEBDE8204099
:100530004FF000064FF000074FF000084FF0000B9F
:1005400021F00701AC46ACE8C009ACE8C009ACE852
:10055000C009ACE8C0098D46704710B50446AFF33A
:1005600000802046BDE81040FFF795BE0048704768
:100570009CD8002000BFFEE7704772B600BFFEE7C0
:1005800070B5044600F008F906462546681C10B10F
:1005900004480078054400BF00F0FEF8801BA84224
:1005A000FAD370BD18000020F8B502460B460025AE
:1005B000002400200021D1E0012606FA01F51E6882
:1005C00006EA0504AC4274D11E7906F00306012E3A
:1005D00004D01E7906F00306022E13D190684F0056
:1005E0000326BE40B0434F00DE68BE4030439060FB
:1005F000506801268E40B0431E79C6F300168E4027
:10060000304350601E7906F00306032E09D0D068EF
:100610004F000326BE40B0434F009E68BE403043AB
:10062000D0601E7906F00306022E13D1CF0802F126
:10063000200656F827004E07F70E0F26BE40B0439F
:100640004F07FF0E1E69BE403043CF0802F120065F
:1006500046F8270010684F000326BE40B0431E79BD
:1006600006F003064F00BE40304310605E6806F49B
:100670004036002E71D000BF00260096394E3668F5
:1006800046F48046374F3E603E46366806F4804664
:10069000009600BF00BF344E8F0856F827008E0723
:1006A000370F0F26BE40B043304EB24202D1002673
:1006B0001FE052E02E4EB24201D1012619E02D4E2C
:1006C000B24201D1022614E02B4EB24201D10326E0
:1006D0000FE02A4EB24201D104260AE0284EB2426F
:1006E00001D1052605E0274EB24201D1062600E0E1
:1006F00007268F073F0FBE4030431B4E8F0846F83A
:100700002700214E3068A0435E6806F4801606B1CB
:1007100020431D4E3060361D3068A0435E6806F4ED
:10072000001606B12043184E361D3060164E361F97
:100730003068A0435E6806F4003606B12043124ECE
:10074000361F3060361F3068A0435E6806F480367E
:1007500006B120430C4E083E3060491C1029FFF4BE
:100760002BAFF8BD44380240083801400000024079
:100770000004024000080240000C02400010024049
:100780000014024000180240083C01400AB1816197
:1007900001E00B0483617047014800687047000066
:1007A0001000002003480068034909780844014903
:1007B00008607047100000201800002010B50D4898
:1007C000006840F400700B4908600846006840F477
:1007D000806008600846006840F48070086003206C
:1007E00000F092F8002000F007F800F02BF800204D
:1007F00010BD0000003C024070B504460E48007871
:100800004FF47A71B1FBF0F00C490968B1FBF0F5D7
:10081000284600F058FE08B1012070BD102C07D208
:1008200000222146501E00F031F80548046001E026
:100830000120F2E70020F0E7180000201C00002053
:100840001400002008B500BF002000900E4800688A
:1008500040F480400C4908600846006800F480407D
:10086000009000BF00BF00BF00200090081F00687C
:1008700040F08050091F08600846006800F0805072
:10088000009000BF00BF08BD443802402DE9F05F72
:1008900080460D461646002701F020FC07463946E3
:1008A0002A46334601F00700C0F1070ABAF1040FE7
:1008B00002D94FF0040A01E0C0F1070AD14600F165
:1008C000040ABAF1070F02D24FF0000A01E0A0F1CA
:1008D000030AD4464FF0010A0AFA09FAAAF1010AFA
:1008E0000AEA020A0AFA0CFA4FF0010B0BFA0CFBA7
:1008F000ABF1010B0BEA030B4AEA0B04214640461D
:1009000001F0F4FBBDE8F09F00BF00F00702064BCA
:1009100019684FF6FF031940044B0B4343EA0221C9
:10092000014B196000BF70470CED00E00000FA05B4
:1009300038B5002400BF002000901D48006840F03A
:1009400080501B4908600846006800F08050009005
:1009500000BF00BF012017490864FFF71DFF0446D0
:1009600007E0FFF719FF001BB0F57A7F01D90320DC
:1009700038BD1148406800F48030B0F5803FF0D1B8
:1009800001200C494864FFF707FF044607E0FFF722
:1009900003FF001BB0F57A7F01D90320E8E7064882
:1009A000406800F40030B0F5003FF0D10020DFE7F0
:1009B0004038024000000E420070004070B504460E
:1009C0000D460CB9012070BD5848006800F00F00BA
:1009D000A84209D255490D700846006800F00F0082
:1009E000A84201D00120EEE7207800F002000228A2
:1009F0001DD1207800F00400042805D14C4800687F
:100A000040F4E0504A490860207800F008000828C7
:100A100005D14748006840F46040454908604448B3
:100A2000006820F0F000A168084341490860207880
:100A300000F00100A8B36068012807D13C480838DD
:100A40000068C0F34040B8B90120BCE760680228E4
:100A500002D06068032807D1354808380068C0F321
:100A6000406048B90120AEE7314808380068C0F35B
:100A7000400008B90120A6E72D48006820F00300D7
:100A8000616808432A490860FFF786FE064609E0C8
:100A9000FFF782FE801B41F28831884202D9032091
:100AA00091E707E02248006800F00C006168B0EBB5
:100AB000810FEDD11D48006800F00F00A84209D950
:100AC0001A490D700846006800F00F00A84201D0D6
:100AD000012078E7207800F00400042807D11448AA
:100AE000006820F4E050E16808431149086020786C
:100AF00000F00800082808D10D48006820F4604084
:100B0000216940EAC1000A49086000F03FF808493D
:100B10000968C1F30311074A515CC84006490860DF
:100B200006480068FFF768FE00204CE7003C0240E2
:100B300008380240162303081C000020140000207F
:100B400001480068704700001C00002000B5FFF756
:100B5000F7FF04490968C1F38221034A515CC84088
:100B600000BD0000083802402623030800B5FFF747
:100B7000E7FF04490968C1F34231034A515CC840A8
:100B800000BD000008380240262303082DE9F04785
:100B9000002400250026A146A2463F48006800F038
:100BA0000C0030B1042807D0082808D00C286BD1DD
:100BB00038E0DFF8E8A06AE0DFF8E4A067E0364854
:100BC000001F006800F03F043348001F006800F475
:100BD000800078B132483049091F0968C1F3881193
:100BE000A0FB01700146224600233846FFF77BFB3D
:100BF00005460DE029482849091F0968C1F38811F5
:100C0000A0FB0171224600233846FFF76CFB054626
:100C10002148001F0068C0F30140401C4600B5FB9E
:100C2000F6FA34E01C48001F006800F03F041A4840
:100C3000001F006800F4800078B119481649091FA8
:100C40000968C1F38811A0FB017001462246002308
:100C50003846FFF748FB05460EE010480E49091FCD
:100C60000968C1F38811A0FB0170014622460023E8
:100C70003846FFF738FB05460748001F0068C0F3F9
:100C80000279B5FBF9FA02E0DFF810A000BF00BF5F
:100C90005046BDE8F0870000083802400024F40008
:100CA00000127A00F8B504460CB90120F8BD20788E
:100CB00000F0010000286FD0FE48006800F00C0032
:100CC00004281BD0FB48006800F00C00082807D15E
:100CD000F848001F006800F48000B0F5800F0DD0C8
:100CE000F448006800F00C000C2813D1F148001FF4
:100CF000006800F48000B0F5800F0BD1ED48083893
:100D00000068C0F34040002859D06068002856D1E0
:100D10000120CBE700BF6068B0F5803F08D1E5480F
:100D20000838006840F48030E249083908601EE065
:100D30006068B0F5A02F0DD1DE480838006840F497
:100D40008020DC49083908600846006840F480309B
:100D500008600CE0D7480838006820F48030D54996
:100D6000083908600846006820F48020086000BF49
:100D7000606890B1FFF710FD054606E0FFF70CFD37
:100D8000401B642801D9032090E7CA48083800684E
:100D9000C0F340400028F1D011E0FFF7FDFC05460C
:100DA00006E0FFF7F9FC401B642801D903207DE72A
:100DB000C04808380068C0F340400028F1D12078CE
:100DC00000F0020002286BD1BA48006800F00C0065
:100DD000B8B1B848006800F00C00082805D1B54843
:100DE000001F006800F4800058B1B248006800F0AD
:100DF0000C000C281CD1AF48001F006800F48000D4
:100E0000B0B9AC4808380068C0F3400020B1E068D1
:100E1000012801D0012049E7A6480838006820F0E1
:100E2000F800216940EAC100A2490839086037E0AA
:100E3000E06800B30120A0490860FFF7ADFC05465B
:100E400006E0FFF7A9FC401B022801D903202DE78B
:100E5000984808380068C0F340000028F1D0954851
:100E60000838006820F0F800216940EAC100914983
:100E70000839086014E000208F490860FFF78CFCF7
:100E8000054606E0FFF788FC401B022801D9032035
:100E90000CE7884808380068C0F340000028F1D10A
:100EA000207800F0080008282CD16069A8B1012042
:100EB00082490860FFF770FC054606E0FFF76CFC0E
:100EC000401B022801D90320F0E67A486C30006804
:100ED000C0F340000028F1D014E0002077490860FA
:100EE000FFF75AFC054606E0FFF756FC401B0228B8
:100EF00001D90320DAE66F486C300068C0F3400087
:100F00000028F1D1207800F00400042870D10027D7
:100F100068483830006800F0805090B900BF002069
:100F2000009064483830006840F0805061493831A2
:100F300008600846006800F08050009000BF00BFC5
:100F400001275F48006800F48070B0B95C48006811
:100F500040F480705A490860FFF71EFC054606E021
:100F6000FFF71AFC401B022801D903209EE65448D3
:100F7000006800F480700028F2D000BFA06801284B
:100F800008D14C486830006840F001004949683198
:100F900008601DE0A06805280DD14648683000684B
:100FA00040F004004349683108600846006840F09A
:100FB000010008600CE03F486830006820F0010044
:100FC0003C49683108600846006820F00400086069
:100FD00000BFA068A8B1FFF7DFFB054609E0FFF7F7
:100FE000DBFB401B41F28831884202D903205DE6D9
:100FF00026E0304868300068C0F340000028EED09A
:1010000013E0FFF7C9FB054608E0FFF7C5FB401BEF
:1010100041F28831884201D9032047E625486830EB
:101020000068C0F340000028EFD1012F07D121480C
:101030003830006820F080501E493831086000BF09
:10104000A069002851D01B48006800F00C00082857
:1010500061D0A069022849D1002017490866FFF72E
:101060009BFB054606E0FFF797FB401B022801D9D2
:1010700003201BE60F4808380068C0F340600028D2
:10108000F1D1D4E907010843616A40EA81110122E4
:10109000A06AC2EB500041EA00412C20005D41EA09
:1010A00000613020005D41EA00700249091F0860BC
:1010B000012007E00838024000004742800E474206
:1010C000007000402F490866FFF766FB054606E002
:1010D000FFF762FB401B022801D90320E6E52A48FE
:1010E0000068C0F340600028F2D048E000202549A5
:1010F0000866FFF751FB054606E0FFF74DFB401B76
:10110000022801D90320D1E51F480068C0F34060E0
:101110000028F2D133E0A069012800D1C6E51A48C1
:10112000001D0668A069012827D006F48001E06947
:10113000814222D106F03F01206A81421DD147F64B
:10114000C0703040616AB0EB811F16D106F44031A7
:101150000122A06AC2EB5000B1EB004F0DD106F0A6
:1011600070612C20005DB1EB006F06D106F0E0410C
:101170003020005DB1EB007F01D0012096E500201A
:1011800094E50000000047420038024010B50446D4
:101190000CB9012010BD606A38B96068B0F5827F73
:1011A00000D105E00021E16102E0002121616161DF
:1011B0000021A16294F8510028B9002084F8500061
:1011C000204600F047F8022084F8510020680068AB
:1011D00020F0400021680860A08800F48270218916
:1011E00001F404410843A18901F400610843217C12
:1011F00001F002010843217D01F001010843218B28
:1012000001F400710843217F01F0380108432021D7
:10121000095D01F080010843218D01F4005108436C
:10122000216808600421A06901EA104094F82410A4
:1012300001F010010843216848602068C06920F46B
:1012400000602168C86100206065012084F85100B9
:1012500000209FE710B586B00446142101A8FFF7CF
:10126000EBF82949206888424CD100BF002000904B
:101270002648006840F48050244908600846006809
:1012800000F48050009000BF00BF00BF002000901D
:101290001E481438006840F001001C4914390860E9
:1012A0000846006800F00100009000BF00BF00BFCA
:1012B000002000900846006840F0020008600846E0
:1012C000006800F00200009000BF00BFC020019045
:1012D0000220029000200390032004900520059036
:1012E00001A90B48FFF760F9082001900220029045
:1012F00000200390032004900520059001A90548D3
:10130000FFF752F906B010BD0030014044380240EA
:1013100000000240000402402DE9F84F04468846D0
:1013200016461D464FF0000A00BF94F850000128F1
:1013300002D10220BDE8F88F012084F8500000BFE0
:10134000FFF72AFA0746B14694F85100012802D067
:101350004FF0020AADE0B8F1000F00D016B94FF01F
:10136000010AA6E0032084F8510000206065C4F85B
:101370003080A686E686A063A087E087606420644C
:10138000A068B0F5004F0BD12068006820F0400045
:10139000216808602068006840F480402168086087
:1013A0002068006800F04000402805D020680068F0
:1013B00040F0400021680860E068B0F5006F2FD170
:1013C000606810B1B9F1010F09D1206B0088216864
:1013D000C860206B801C2063E08E401EE0861BE00E
:1013E0002068806800F0020002280AD1206B008883
:1013F0002168C860206B801C2063E08E401EE08660
:101400000AE0FFF7C9F9C01BA84201D3681C00B964
:1014100015B94FF0030A4CE0E08E0028E0D12EE031
:10142000606810B1B9F1010F09D1206B0078216813
:101430000873206B401C2063E08E401EE0861BE09A
:101440002068806800F0020002280AD1206B007832
:1014500021680873206B401C2063E08E401EE086EC
:101460000AE0FFF799F9C01BA84201D3681C00B934
:1014700015B94FF0030A1CE0E08E0028E0D13A468F
:101480002946204600F000FC08B120206065A068D5
:1014900050B900BF002000902068C068009020680C
:1014A0008068009000BF00BF606D08B14FF0010A76
:1014B00000BF012084F8510000BF002084F85000D4
:1014C00000BF504636E770B504462546681EB0F1A9
:1014D000807F01D301200FE0681E4FF0E0214861BA
:1014E0000F214FF0FF3000F001FE00204FF0E0210F
:1014F000886107200861002070BD10B504460CB952
:10150000012010BDA06900B100E000BF94F83D00CB
:1015100028B9002084F83C00204600F027F8242059
:1015200084F83D002068C06820F400502168C8603D
:10153000204600F0BBFC2068006920F49040216840
:1015400008612068406920F02A002168486120680D
:10155000C06840F400502168C8600020206420204A
:1015600084F83D0084F83E000020CAE710B586B03C
:101570000446142101A8FEF75FFF1B49206888423A
:101580002FD100BF002000901848006840F40030C0
:10159000164908600846006800F40030009000BF5B
:1015A00000BF00BF0020009010481038006840F0D5
:1015B00001000E49103908600846006800F001007B
:1015C000009000BF00BF0C2001900220029000207C
:1015D0000390032004900720059001A90448FEF71A
:1015E000E3FF06B010BD0000004400404038024058
:1015F0000000024000BFFEE72DE9F84F04460D460B
:1016000016461F46DDF82880301B401C00F0FF0BFB
:10161000781B401CC0B200903B463246294620460B
:1016200000F0CAF90F49C87800F0FCF94FF0000942
:1016300012E04FF0000A09E0B8F8000000F02EFABE
:1016400008F102080AF1010000F0FF0ADA45F3DBB5
:1016500009F1010000F0FF0900988145E9DBBDE8D0
:10166000F88F00000000002070B506461148407851
:10167000401EC3B20F480078401EC2B20021084687
:1016800000F09AF90B49C87800F0CCF900240CE07E
:10169000002504E0304600F001FA681CC5B2054898
:1016A0000078A842F6DC601CC4B202484078A04230
:1016B000EEDC70BD0000002010B5044634B1012CF2
:1016C00011D0022C1CD0032C34D126E080201B49E1
:1016D00008704870022088710320C871C821362024
:1016E00000F008FA27E080201449087048700320B1
:1016F00088710220C871A821362000F0FBF91AE099
:1017000080200E4908704870022088710120C8713D
:101710000821362000F0EEF90DE08020074908701E
:101720004870012088710220C8716821362000F0BD
:10173000E1F900E000BF00BF10BD00000000002084
:1017400010B500F01DF9112000F06CF97820FEF7BB
:1017500017FFB12000F066F9012000F081F92C207C
:1017600000F07EF92D2000F07BF9B22000F05AF94C
:10177000012000F075F92C2000F072F92D2000F006
:101780006FF9B32000F04EF9012000F069F92C2028
:1017900000F066F92D2000F063F9012000F060F9F7
:1017A0002C2000F05DF92D2000F05AF9B42000F053
:1017B00039F9072000F054F9C02000F033F9A220D5
:1017C00000F04EF9022000F04BF9842000F048F9B7
:1017D000C12000F027F9C52000F042F9C22000F036
:1017E00021F90A2000F03CF9002000F039F9C3206B
:1017F00000F018F98A2000F033F92A2000F030F9BF
:10180000C42000F00FF98A2000F02AF9EE2000F041
:1018100027F9C52000F006F90E2000F021F9E0209C
:1018200000F000F90F2000F01BF91A2000F018F961
:101830000F2000F015F9182000F012F92F2000F009
:101840000FF9282000F00CF9202000F009F92220DF
:1018500000F006F91F2000F003F91B2000F000F94A
:10186000232000F0FDF8372000F0FAF8002000F007
:10187000F7F8072000F0F4F8022000F0F1F810204B
:1018800000F0EEF8E12000F0CDF80F2000F0E8F8CD
:101890001B2000F0E5F80F2000F0E2F8172000F020
:1018A000DFF8332000F0DCF82C2000F0D9F82920F4
:1018B00000F0D6F82E2000F0D3F8302000F0D0F859
:1018C000302000F0CDF8392000F0CAF83F2000F0B9
:1018D000C7F8002000F0C4F8072000F0C1F803208A
:1018E00000F0BEF8102000F0BBF82A2000F09AF8B3
:1018F000002000F0B5F8002000F0B2F8002000F061
:10190000AFF87F2000F0ACF82B2000F08BF800201F
:1019100000F0A6F8002000F0A3F8002000F0A0F8E6
:101920009F2000F09DF8F02000F07CF8012000F0EE
:1019300097F8F62000F076F8002000F091F83A20B1
:1019400000F070F8052000F08BF80120FFF7B4FEDE
:1019500004498889FFF788FE00F006F86420FEF746
:101960000FFE10BD0000002010B5012291030348B6
:10197000FEF70CFF292000F055F810BD00040240CE
:1019800010B500224FF400510A48FEF7FFFE642014
:10199000FEF7F6FD012251030648FEF7F7FE32205E
:1019A000FEF7EEFD012000F03DF83220FEF7E8FDE5
:1019B00010BD0000000402402DE9F04104460D4630
:1019C00016461F461649087900F02CF8002000F052
:1019D00047F8134989792144C8B200F041F8002042
:1019E00000F03EF80E4989793144C8B200F038F869
:1019F0000B49487900F016F8002000F031F808494A
:101A0000C9792944C8B200F02BF8002000F028F86A
:101A10000349C9793944C8B200F022F8BDE8F08121
:101A20000000002001B5002210210A48FEF7AEFE9A
:101A300000224FF400410848FEF7A8FEFF230122D0
:101A400069460648FFF768FC012210210148FEF7AD
:101A50009DFE08BD0000024000040240080900206D
:101A600001B5002210210A48FEF790FE0122D103A1
:101A70000848FEF78BFEFF23012269460648FFF760
:101A80004BFC012210210248FEF780FE08BD000039
:101A90000000024000040240080900201CB5044672
:101AA00000200190009020120190E0B200900022EE
:101AB00010210D48FEF76AFE0122D1030B48FEF704
:101AC00065FEFF23012201A90948FFF725FCFF233A
:101AD000012269460648FFF71FFC01221021024837
:101AE000FEF754FE1CBD000000000240000402404E
:101AF0000809002070B505460C462846FFF792FFFE
:101B00002046FFF7ADFF70BD00B587B0142102A8D5
:101B1000FEF792FC00BF002001903548006840F0BD
:101B20000400334908600846006800F00400019092
:101B300000BF00BF00BF002001900846006840F0D1
:101B4000800008600846006800F08000019000BF37
:101B500000BF00BF002001900846006840F001006F
:101B600008600846006800F00100019000BF00BF57
:101B700000BF002001900846006840F002000860A5
:101B80000846006800F00200019000BF00BF00227C
:101B900030211848FEF7FAFD00224FF46041164844
:101BA000FEF7F4FD4FF4005002904FF40410039040
:101BB0000020049002A91148FEF7F6FC30200290A4
:101BC0000120039000200490059002A90948FEF727
:101BD000EBFC4FF460400290012003900020049041
:101BE000059002A90448FEF7DFFC07B000BD000025
:101BF0003038024000000240000402400008024069
:101C000010B50E480E4908604FF4827048600021FC
:101C10000B488160C160016141614FF400718161D5
:101C20000021C1610162416281620A21C162FFF744
:101C3000ADFA08B1FEF7A1FC10BD00000030014074
:101C40000809002010B50B480B4908604FF4E1303B
:101C50004860002108488160C16001610C21416138
:101C600000218161C161FFF748FC08B1FEF785FCE6
:101C700010BD0000004400406009002000BFFEE7E6
:101C800000BFFEE7704700007CB504460D461646CF
:101C9000164800681821B0FBF1F01549B0FBF1F0CF
:101CA0004FF47A71484301906068B0F5827F0DD19E
:101CB0002B46002280212046009600F01BF898B1A8
:101CC000606D40F02000606503207CBD00BF01987E
:101CD00000B908E00198401E019020688068C0F3B8
:101CE000C0100028F3D100BF0020EEE71C00002048
:101CF00040420F002DE9F84F04460D4690461E461F
:101D0000DDF82890FEF748FDA0EB0900371AFEF732
:101D100043FD82462C480068C0F3CB3078430090E6
:101D200045E0701C002842D0FEF736FDA0EB0A000B
:101D3000B84200D2A7BB2068406820F0E0002168CC
:101D400048606068B0F5827F0DD1A068B0F5004FA3
:101D500003D0A068B0F5806F05D12068006820F03E
:101D6000400021680860A06AB0F5005F0DD100BF97
:101D70002068006820F4005021680860206800682E
:101D800040F400502168086000BF012084F8510031
:101D900000BF002084F8500000BF0320BDE8F88F8A
:101DA000FFE7009800B900270098401E00902068C7
:101DB00080682840A84201D1012000E00020404571
:101DC000AFD10020EAE700001C000020704710B5EA
:101DD000FEF7E8FC012028F007FB10BD00B593B02A
:101DE000342106A8FEF728FB142101A8FEF724FBE6
:101DF00000BF002000902648006840F08050244931
:101E000008600846006800F08050009000BF00BFE6
:101E100000BF002000901F48006840F440401D496A
:101E200008600846006800F44040009000BF00BF12
:101E3000012006900004079002200C9041050D91AE
:101E400004210E91B4210F91022110911191129150
:101E500006A8FEF727FF08B1FEF78FFBFEF768FD27
:101E600008B1FEF78AFB0F200190022002900020AB
:101E700003904FF4A05004904FF48050059005213A
:101E800001A8FEF79BFD08B1FEF777FB13B000BD7C
:101E900040380240007000400348006840F4700081
:101EA000014908607047000088ED00E02DE9F84F17
:101EB00004462068006920F44050E1680843216826
:101EC00008612169A068084361690843E169084322
:101ED00000902068C06849F20C618843009908436B
:101EE0002168C8602068406920F44070A1690843F7
:101EF0002168486176492068884203D07549206886
:101F0000884203D1FEF732FE814602E0FEF71EFE54
:101F10008146E069B0F5004F6CD102206168A0FBFA
:101F2000015003461920A9FB007001462A46384695
:101F3000FEF7D9F96421B0FBF1F04FEA001A022054
:101F40006168A0FB01510B461920A9FB00712A46CC
:101F50003846FEF7C8F9834602206168A0FB0150AD
:101F600003461920A9FB00712A463846FEF7BBF943
:101F70006421B0FBF1F000EBC00101EB0010ABEB12
:101F80008000322101EBC0006421B0FBF1F000F0D1
:101F9000F8000AEB400A02206168A0FB01500346EA
:101FA0001920A9FB007001462A463846FEF79BF926
:101FB000834602206168A0FB015003461920A9FB5B
:101FC00000712A463846FEF78EF96421B0FBF1F025
:101FD00000EBC00101EB0010ABEB8000322101EB04
:101FE000C0006421B0FBF1F000F00700504421680C
:101FF00088606AE004206168A0FB01500346192054
:10200000A9FB007001462A463846FEF76CF9824665
:1020100004206168A0FB015003461920A9FB007051
:1020200001462A463846FEF75EF96421B0FBF1F01E
:1020300000EBC00101EB0010AAEB8000322101EBA4
:1020400000106421B0FBF1F000F0F00A0420616898
:10205000A0FB017003461920A9FB00513A4628460F
:10206000FEF741F96421B0FBF1F00AEB001A0420FD
:102070006168A0FB01510B461920A9FB00712A469B
:102080003846FEF730F9834604206168A0FB015012
:1020900003461920A9FB007001462A463846FEF780
:1020A00022F96421B0FBF1F000EBC00101EB00105C
:1020B000ABEB8000322101EB00106421B0FBF1F0AA
:1020C00000F00F00504421688860BDE8F88F0000E0
:1020D000001001400014014000BFFEE70248006804
:1020E000C0F30220704700000CED00E010B500289E
:1020F00004DB0A07130E054A135406E00A07140E00
:10210000034A00F00F031B1FD45410BD00E400E08D
:1021100018ED00E070B50446002508E02168481C71
:1021200020600878303805EB850100EB4105216817
:10213000087800F004F80028F0D1284670BD014668
:10214000302903DB392901DC012070470020FCE73E
:1021500010B54C21074800F0D2FD0022212106488D
:1021600028F0AAF90549086002F066FA002004493F
:10217000087010BDE00A0020154700089C000020F0
:102180009800002030B50346B1F90040B2F9005084
:10219000AC4202DDB1F9004001E0B2F900401C8020
:1021A000B1F90240B2F90250AC4202DDB1F902408D
:1021B00001E0B2F902405C80B1F90440B2F9045088
:1021C000AC4202DAB1F9044001E0B2F904409C806B
:1021D000B1F90640B2F90650AC4202DAB1F9064054
:1021E00001E0B2F90640DC800120B3F90040B3F908
:1021F0000450AC4205DCB3F90240B3F90650AC42DE
:1022000000DD002030BDF8B504460D461646002717
:10221000B4F90000B5F90010884212DBB4F90200ED
:10222000B5F9021088420CDBB4F90400B5F90410CA
:10223000884206DCB4F90600B5F90610884200DCD5
:1022400001270FB90020F8BD0EB90120FBE7208857
:10225000ADF800006088ADF80200324669462846B5
:1022600000F0A7F808B90020EDE7A088ADF800005D
:102270006088ADF8020032466946284600F099F8B9
:1022800008B90020DFE72088ADF80000E088ADF84D
:10229000020032466946284600F08BF808B9002053
:1022A000D1E7A088ADF80000E088ADF80200324622
:1022B0006946284600F07DF808B90020C3E70120F0
:1022C000C1E70246B2F90000B1F90430984213DCCC
:1022D000B2F90400B1F9003098420DDBB2F9020006
:1022E000B1F90630984207DCB2F90600B1F90230C4
:1022F000984201DB012070470020FCE7F8B5044656
:102300000D461646B4F90400B5F90010884211DBF9
:10231000B4F90600B5F9021088420BDBB4F90000ED
:10232000B5F90410884205DCB4F90200B5F90610CD
:10233000884201DD0120F8BD0EB90020FBE72088AE
:10234000ADF800006088ADF80200324669462846C4
:1023500000F02FF808B10020EDE7A088ADF80000EC
:102360006088ADF8020032466946284600F021F840
:1023700008B10020DFE72088ADF80000E088ADF864
:10238000020032466946284600F013F808B10020E2
:10239000D1E7A088ADF80000E088ADF80200324631
:1023A0006946284600F005F808B10020C3E701207F
:1023B000C1E72DE9FC5F05460E4614464FF0000AC2
:1023C000B6F90000B5F90010884213DBB6F9000039
:1023D000B5F9041088420DDCB6F90200B5F9021017
:1023E000884207DBB6F90200B5F90610884201DC25
:1023F0004FF0010ABAF1000F02D10020BDE8FC9FA6
:10240000002C01DC0120F9E7284613F047F8834649
:1024100000EBDB704710284612F0B1FF834600EB5B
:10242000DB704FEA6008474501DA384600E0404675
:1024300081464C4500DD4C462888ADF800002888D0
:10244000204400B2ADF804006888ADF80200688846
:10245000204400B2ADF80600002231466846FFF77E
:10246000A8FF80B1BDF80400204400B2ADF804001C
:10247000BDF80600204400B2ADF8060031466846BB
:1024800024F0FCFCBAE7E888001B00B2ADF80200BB
:10249000E888ADF80600002231466846FFF789FF5C
:1024A00080B1BDF80400204400B2ADF80400BDF8CE
:1024B0000200001B00B2ADF802003146684624F06D
:1024C000DDFC9BE7A888001B00B2ADF80000A888DF
:1024D000ADF80400002231466846FFF76AFF80B17C
:1024E000BDF80000001B00B2ADF80000BDF802000E
:1024F000001B00B2ADF802003146684624F0BEFC75
:102500007CE76888ADF802006888204400B2ADF826
:102510000600002231466846FFF74BFF80B1BDF848
:102520000000001B00B2ADF80000BDF8060020441A
:1025300000B2ADF806003146684624F09FFC5DE726
:1025400001205BE710B5B1F90030B2F90040A342B9
:1025500002DAB1F9003001E0B2F900300380B1F9DC
:102560000230B2F90240A34202DAB1F9023001E0CE
:10257000B2F902304380B1F90430B2F90440A34209
:1025800002DDB1F9043001E0B2F904308380B1F921
:102590000630B2F90640A34202DDB1F9063001E08F
:1025A000B2F90630C38010BD2DE9FE43064627F080
:1025B0000BFF804636B17E49F0680860304628F04F
:1025C000A1F803E016F06AFC7949086078480068D1
:1025D00018B900BF00BFBDE8FE8375480068C06938
:1025E00010B900BF00BFF6E771480068006910B974
:1025F00000BF00BFEFE7002232216D48006816F0EF
:1026000037FD6B480068C0F8AC8169490968D1F8AA
:102610006C0124F0C7FA66480068D0F8700128B150
:1026200063490968D1F8700124F0BCFA604909686F
:10263000D1F8780124F0B6FA5D490968D1F87C0137
:1026400024F0B0FA5A490968D1F8800124F0AAFAB6
:1026500057480068D0F86C0138B90020544909681F
:10266000A1F8500100BF00BF9AE05148006890F8FF
:102670002D00012809D14E480068D0F85801007D8E
:10268000092802D000BF00BF8AE024F0C9FC2AF06C
:1026900041F947480068B0F8500100B97BE00022DA
:1026A00030214348006816F0E3FC4148006816F00A
:1026B000B5FC28B13E48006890F82D00012800D0F4
:1026C00055E00BE03A480068D0F8B00130B1384826
:1026D0000068D0F8B0113648006888473448006870
:1026E000406A0028EED132480068876930480068A7
:1026F00080692F4909680969884203D12C4800681C
:10270000406902E02A48006800698146284800685C
:1027100016F0F4FB0546002422E02548006800F589
:102720009870005D00B11AE021480068303000EB7D
:10273000C4001F49CDE9009502900968303101EBD2
:10274000C4031B490968D1F8580119490968D1F82F
:1027500058112A46D1F840C03946E04700BF641CF2
:1027600013480068B0F85001A042D6D800BF4FF41B
:1027700080710F48006830301EF070F920210C483D
:10278000006800F598701EF069F900200849096892
:10279000A1F8500100BF00F051F800F00BF800BFA5
:1027A000002233210248006816F062FC00BF12E7E5
:1027B0003C00002010B5002416E0C4EBC4000C4916
:1027C00051F8200030B1C4EBC401094A52F821008D
:1027D0001AF0F4FDC4EBC401054A02EB81001C2190
:1027E0001EF045F9601CC4B2042CE6DB10BD0000ED
:1027F000480B00200146094A10680BE042688A42F3
:1028000002D002688A4204D1027E22F00102521CE8
:10281000027640690028F1D170470000E0000020F6
:10282000014A416911607047E000002002490968CF
:102830004161014908607047E000002070470000D6
:1028400010B50421014800F05AFA10BDD40A002046
:1028500010B52021014800F052FA10BDEC0A00200A
:102860002DE9FF4704460D4616461F46DDE90C8953
:102870006FB9B8F5807F0AD1002020806080681E83
:1028800000B2A080701E00B2E080BDE8FF8700208B
:102890000090019002900390ADF80450ADF80A60EA
:1028A000ADF80C50ADF80E604B46424639466846CE
:1028B00024F01AFA4B464246394601A824F014FA8D
:1028C0004B464246394602A824F00EFA4B46424691
:1028D000394603A824F008FABDF90000BDF9041038
:1028E000884202DABDF9000001E0BDF90400BDF93B
:1028F0000810BDF90C20914202DABDF9081001E080
:10290000BDF90C1088420BDABDF90000BDF90410C6
:10291000884202DABDF900000DE0BDF904000AE0CA
:10292000BDF90800BDF90C10884202DABDF90800B3
:1029300001E0BDF90C002080BDF90000BDF90410D4
:10294000884202DDBDF9000001E0BDF90400BDF9D7
:102950000810BDF90C20914202DDBDF9081001E01C
:10296000BDF90C1088420BDDBDF90000BDF9041063
:10297000884202DDBDF900000DE0BDF904000AE067
:10298000BDF90800BDF90C10884202DDBDF9080050
:1029900001E0BDF90C00A080BDF90210BDF90600F0
:1029A000814202DABDF9020001E0BDF90600BDF97D
:1029B0000A20BDF90E108A4202DABDF90A1001E0C0
:1029C000BDF90E1088420BDABDF90210BDF9060000
:1029D000814202DABDF902000DE0BDF906000AE00D
:1029E000BDF90A10BDF90E00814202DABDF90A00F4
:1029F00001E0BDF90E006080BDF90210BDF90600CE
:102A0000814202DDBDF9020001E0BDF90600BDF919
:102A10000A20BDF90E108A4202DDBDF90A1001E05C
:102A2000BDF90E1088420BDDBDF90210BDF906009C
:102A3000814202DDBDF902000DE0BDF906000AE0A9
:102A4000BDF90A10BDF90E00814202DDBDF90A0090
:102A500001E0BDF90E00E08000BF16E70EB5684644
:102A60001BF080F90448009004480190044802904B
:102A700068461BF065F90EBDB12A000887DD010824
:102A80003DDD010837B50446154600BF074800681C
:102A900018B900BF00BF00BFFEE700BF03482A46C9
:102AA00003682046019998473EBD0000A409002014
:102AB0002DE9F743054616460024154C27F084FC03
:102AC0008146334629462046019A1BF0FBFA804690
:102AD000B8F1000F0DD100BF00BF38273A460021E2
:102AE00020461DF062FF00BF380760630020BDE88C
:102AF000FE8300206063A06A18B9484627F056FCA0
:102B0000A062A06A08B90120A0622046EFE7000099
:102B1000100B002010B514210F4800F0F0F81BF046
:102B200083FA044600BF1CB900BF00BF00BFFEE728
:102B300000BF14B900BF00BF10BD084920461BF0FC
:102B40005BFB074920461BF059FB064920461BF05A
:102B500051FB00BFF0E70000F80A002051DE010839
:102B600005DF010819DE01082DE9FF470446884604
:102B700014B916F093F904460CB9BDE8FF87204656
:102B800016F053FA00B9F8E7E06AC0F3404010B11C
:102B900000BF00BFF1E7B8F1000F03D10020A4F897
:102BA0005001EAE70020ADF80800ADF80A00204621
:102BB00016F0A4F9401E00B2ADF80C00204616F045
:102BC00014FA401E00B2ADF80E0002AA4146684653
:102BD000FFF7D8FA064606B9CFE794F82D00022889
:102BE0000ED102982063039860630120A4F850017D
:102BF000D4F8A40118B1D4F8A40127F08FFDBCE7E4
:102C00006A462E21204616F033FA0746012F00D0DF
:102C1000B3E700250BE004F1300000EBC501002212
:102C20006846FFF7F0FA00B1A7E7681C85B2B4F870
:102C30005001A842EFDCE946B4F85001202804DB3B
:102C40000020A4F850010DF10809B4F8502104F156
:102C5000300101EBC200494612F006FBB4F8500106
:102C6000401CA4F85001D4F8A40118B1D4F8A40170
:102C700027F054FD00BF80E770B50546284600F0F8
:102C800013F8044600260CE02146284600F024F8FC
:102C900006462146284600F086F820461AF08EFBAC
:102CA0003446002CF0D170BD014609B900207047B0
:102CB0004868FCE770B5064600243046FFF7F4FF8D
:102CC000054605E0641C2946304600F005F8054637
:102CD000002DF7D1204670BD02460B461068001D3E
:102CE00003441868704702460B461068034418688E
:102CF0007047014609B9002070478868FCE7002248
:102D000042608260CA1C22F003010160704770B506
:102D10000446216801F108001DF086FC0546A5B1B6
:102D200000222946204628F0C5FF29462046626831
:102D300028F0B2FF606820B12A462046616828F07A
:102D4000B9FF6560A06800B9A560284670BD70B580
:102D50000446216801F108001DF066FC0546A5B196
:102D600000222946204628F097FF29462046A268DF
:102D700028F0A0FFA06820B12A462046A16828F0CC
:102D80008BFFA560606800B96560284670BD01468C
:102D900009B901207047486818B9886808B9012046
:102DA000F8E70020F6E72DE9F04104460D460CB99E
:102DB000BDE8F0812046FFF777FFA8420FD12946F2
:102DC0002046FFF789FF6060606810B90020A060AE
:102DD0002FE000222046616828F06CFF29E02046A1
:102DE000FFF787FFA8420FD129462046FFF77BFF58
:102DF000A060A06810B9002060601AE000222046A0
:102E0000A16828F049FF14E029462046FFF76BFF30
:102E1000064629462046FFF75FFF07463A463146F9
:102E2000204628F039FF32463946204628F042FF36
:102E300000BF00BFBCE710B504462068806818B129
:102E400020682146826890472068006828B1206881
:102E5000006820602046FFF7EEFF10BD014688683D
:102E600018B18868B0F91A0070470020FCE70146E5
:102E7000886820B18868407FC0F301107047002047
:102E8000FCE72DE9F04104460D4616461DB916B97A
:102E90000120BDE8F08120461EF0CCFCA068808AAD
:102EA000284400B2A1688882A068C08A304401B278
:102EB000A068C182012332462946204622F02EF91D
:102EC00000220C21204623F0F9F90746012F01D0FA
:102ED0003846DEE7204622F048F80120D9E7F7B56A
:102EE00082B004460E4614B9049805B0F0BD00BF88
:102EF00061223146204621F05BF80190019D00BF20
:102F0000BDB12868A8B100BF62223146204621F039
:102F10004FF801900198C0B207464FB13A462B686E
:102F20002846049998470190BDF80400ADF81000B8
:102F300000BF0498D9E700002DE9F04F97B0044690
:102F40008B4691469A46209D608C20F00400001D1F
:102F50006084A4F820902A895946204621F028F858
:102F60001690A4F820A02A895946204621F020F87E
:102F70001590608C20F004006084DDE91510884213
:102F80000BD1DDE91510884207D1DDE9151014F0E9
:102F90009EFA10B117B0BDE8F08FA4F820902A89EE
:102FA0005946204621F004F81690A4F820A059466E
:102FB00020460FF0C1FA14902989149A1068169AC5
:102FC00025F0D2FC28890B2833D147F6FF711698DB
:102FD000884202D0159888422BD1204621F0E5FB8B
:102FE000009000EBD070471020461FF01BFC0090B3
:102FF00000EBD0704FEA600847F6FF7116988842E0
:1030000008D1781C08F10101884200DA01E008F1DA
:103010000100169047F6FF711598884208D1781C78
:1030200008F10101884200DA01E008F10100159081
:1030300000BF2248FFF76BFE064600BF1EB900BF67
:1030400000BF00BFFEE700BF06B9A3E71698F06017
:103050001598306134602889B080C6F808B001A89E
:1030600011F09EFA314601A811F05EFB144901A847
:1030700011F01EFB1348039000BF134901A811F083
:1030800029FBFF22002101A811F03AFB298801A8A1
:1030900011F02AFB698801A811F005FBE868089087
:1030A00000BF01A9002081F8420000BF28690790F5
:1030B00000BF01A811F052FB00BF6BE7040B00201A
:1030C0001F16030879180308A917030810B514215F
:1030D0000148FFF714FE10BD040B00202DE9FE4F40
:1030E00004460F4690464FF0000900254CE1E06889
:1030F00000EBC5004068C0F3406000B143E1E16807
:1031000001EBC501496821F07F4023F011FD06461F
:1031100026EA070008B9012000E00020029026EA14
:10312000080008B9012000E000200190DDE901015C
:10313000814270D0E06850F835A04FF0000B6A462D
:103140001021504624F0B7FF10B14FF0010B98E06A
:103150006A461121504624F0AEFF10B14FF0010B2A
:103160008FE06A461221504624F0A5FF10B14FF0BF
:10317000010B86E06A461321504624F09CFF10B1F3
:103180004FF0010B7DE06A461521504624F093FF75
:1031900010B14FF0010B74E06A461421504624F040
:1031A0008AFF10B14FF0010B6BE06A460A215046CE
:1031B00024F081FF10B14FF0010B62E06A466A21F2
:1031C000504624F078FF10B14FF0010B59E06A46E9
:1031D0006B21504624F06FFF10B14FF0010B50E00F
:1031E0006A460121504624F066FF10B14FF0010BF2
:1031F00047E06A460421504624F05DFF10B14FF0CD
:10320000010B3EE06A460221504624F054FF18B1FB
:103210004FF0010B35E0B5E06A460321504624F03B
:103220004AFF10B14FF0010B2BE06A4605215046D2
:1032300024F041FF10B14FF0010B22E06A46062155
:10324000504624F038FF10B14FF0010B19E06A46E8
:103250003221504624F02FFF10B14FF0010B10E047
:103260006A466D21504624F026FF10B14FF0010B45
:1032700007E06A466C21504624F01DFF08B14FF06C
:10328000010BBBF1000F02D00320BDE8FE8F6A46A0
:103290006821504624F00FFF10B14FF0020970E092
:1032A0006A466921504624F006FF10B14FF002092A
:1032B00067E06A466D21504624F0FDFE10B14FF0E4
:1032C00002095EE06A466C21504624F0F4FE10B11B
:1032D0004FF0020955E06A463721504624F0EBFED4
:1032E00010B14FF002094CE06A463821504624F0F4
:1032F000E2FE10B14FF0020943E06A463521504624
:1033000024F0D9FE10B14FF002093AE06A4640219C
:10331000504624F0D0FE10B14FF0020931E06A4669
:103320004521504624F0C7FE10B14FF0020928E0B5
:103330006A464121504624F0BEFE10B14FF002090A
:103340001FE06A464221504624F0B5FE10B14FF00E
:10335000020916E06A464321504624F0ACFE10B143
:103360004FF002090DE06A464921504624F0A3FEC1
:1033700010B14FF0020904E0B9F1000F01D14FF094
:10338000010900BF00BF6D1C608CC0F3C500A842DE
:103390003FF6ADAE484678E7014800687047000048
:1033A0003C00002070470146C1F30412072A00DDEB
:1033B0000722D0B27047000001464FF6FF708142ED
:1033C00001D11F20704709B90020FBE7702902DAFC
:1033D0000948405CF6E7A1F1700081B20748006837
:1033E00038B107480068814203D204480068405C55
:1033F000E8E70020E6E70000165C0308FC00002078
:103400001001002010B518210348FFF778FC0120B7
:1034100027F08EF810BD0000B00A00202DE9F04121
:1034200005460F4616460DB9BDE8F081284624F042
:1034300034FE8046394628460A4A126890470746B5
:10344000E8193146074A1268904706463C4603E0B1
:10345000A019285C2855641CA8EB0600A042F7D2EE
:1034600000BFE1E7400100202DE9F04106460C468F
:1034700017461D4629463046084A12689047206084
:10348000206830B1296888190021044A12689047E1
:1034900000E000203860BDE8F08100003801002025
:1034A0002DE9F04F87B004460F4692469846DDE975
:1034B00010560DB1002028801CB9002007B0BDE8CF
:1034C000F08F207808B90020F8E70FB90020F5E761
:1034D0004FF0000906F0020010B906F0040098B1A0
:1034E000002000E0401C215C0A2905D0215C0D2948
:1034F00002D0215C0029F5D1215C01B1401C15B13D
:103500004FF0FF312980D9E706F0020008B141F6FB
:10351000FF7800200690059038E000200490059880
:1035200008B9012000E0002006A904AACDE9006244
:10353000CDE902100599601843465246394627F0F6
:1035400075FA83460498A8EB00000FFA80F80498F7
:1035500048440FFA80F9BBF1000F00D11CE0059838
:103560005844059020780A2802D020780D2800D1F0
:1035700012E00598205C0A2803D00598205C0D28ED
:1035800003D10598401C059006E000BF0598205C1B
:1035900010B1B8F1000FC0DC00BF059870B905A9E3
:1035A0002046094A12689047834635B100225946A1
:1035B000384619F0DEFE0FFA80F900BF0DB1A5F80C
:1035C000009005987AE70000380100202DE9F047C7
:1035D00006468846174606B10FB9BDE8F087304663
:1035E00024F05BFD8146384624F057FD044604B9BB
:1035F000F3E704EB090A414630460B4A126890474C
:103600008046554603E0281B305C70556D1E08EB64
:103610000400A842F7D906EB0800224639461DF0FF
:103620007BF800BFD9E7000040010020014609B93E
:1036300000207047B1F59C4F05D349F6A570814233
:1036400001D80120F5E7B1F57F4F05D94FF65E703F
:10365000814201D80120ECE7B1F5405F04D3B1F518
:10366000415F01D20120E4E70020E2E702460020AA
:103670000FA31B788B4211D113781BB90123137050
:1036800001200BE01378012B02D10023137005E019
:103690001378022B02D10023137001201378012B21
:1036A00004D1202901D102231370012070470000AA
:1036B0002300000073B582B00546039801902A46A6
:1036C00000210846019B27F0D9FC06460020019006
:1036D0000024701C1CF0A8FF044600BF1CB900BFEA
:1036E00000BF00BFFEE700BF14B9002004B070BDEA
:1036F0002A46711C2046039B27F0C0FC2046F5E7B4
:103700002DE9F04781460E4614461F46DDF820A0FD
:1037100035461BE0600800FB075529464846D04760
:10372000B0F1000809DD04F0010080F00100C0EBF9
:103730005404E8190546064608E0B8F1000F02DA1D
:103740006408354602E02846BDE8F087002CE1D148
:103750000020F9E72DE9FF4F8BB0074600250C98B4
:1037600000B9FA4FEAE20E98007825280AD02A46D6
:103770006D1C0E990878DDE90C13B8470E98401CB3
:103780000E90DBE20E98401C0E90002400BF0E98B5
:1037900000782B2819D004DC20281ED023282CD117
:1037A00023E02D2809D0302827D144F001040E98B9
:1037B000401C0E9001200A9022E044F002040E9872
:1037C000401C0E9001200A901AE044F004040E9868
:1037D000401C0E9001200A9012E044F008040E985C
:1037E000401C0E9001200A900AE044F010040E984C
:1037F000401C0E9001200A9002E000200A9000BFB9
:1038000000BF0A980028C2D180460E990878FEF7BA
:1038100096FC20B10EA8FEF77DFC804612E00E98C3
:1038200000782A280ED1189901C91891002804DAC5
:1038300044F00204C0F1000800E080460E99491CE3
:103840000E9100BF4FF000090E9800782E281FD16E
:1038500044F480640E98401C0E900E990878FEF790
:103860006EFC20B10EA8FEF755FC814610E00E98C4
:1038700000782A280CD1189901C91891002801DD77
:10388000014600E0002189460E99491C0E9100BFB7
:103890000E9800786C280AD004DC682816D06A28B4
:1038A00035D128E0742820D07A2830D129E044F49A
:1038B00080740E98401C0E900E9800786C2804D1ED
:1038C00044F400740E98401C0E9021E044F08004F3
:1038D0000E98401C0E900E980078682804D144F091
:1038E00040040E98401C0E9012E044F480740E9830
:1038F000401C0E900CE044F400740E98401C0E9096
:1039000006E044F480740E98401C0E9000E000BF66
:1039100000BF0E98007869281DD00EDC622821D0E7
:1039200006DC25287ED050281AD058287BD115E0F7
:10393000632879D06428F9D10CE0732875D004DCB1
:103940006F280ED07028F1D109E0752804D07828AE
:10395000ECD102E000BF00BF00BF00BF00BF00BF4E
:1039600000BF00BF0E980078782803D00E9800782A
:10397000582801D1102623E00E980078702803D033
:103980000E98007850280CD1102644F0100444F40E
:1039900080740E984078562812D10E98401C0E90D4
:1039A0000EE00E9800786F2801D1082608E00E98E6
:1039B0000078622801D1022602E00A2624F01004D1
:1039C0000E980078582803D00E980078502801D11E
:1039D00044F020040E980078692805D00E980078ED
:1039E000642801D024F00C0404F4806008B124F0B1
:1039F00001040E980078692803D00E980078642896
:103A00007CD104F40070B8B31898C01D20F00700F2
:103A10001890D0E900AB189A083218920020CDE92E
:103A2000069803E073E17CE1F2E01CE1CDE904607B
:103A30000894BAEB00017BEB000001DA012000E002
:103A40000020002102900846B1EB0A0170EB0B0048
:103A500002DA5046594605E000200146B0EB0A0064
:103A600061EB0B01CDE900012A463846DDE90C1374
:103A700000F044FA0546C7E0FFE704F48070D0B1D7
:103A8000189850F804AB18904FEADA70CDE9039813
:103A900002960594BAF1000F01DD514601E0CAF12A
:103AA0000001CDE900102A463846DDE90C1300F08C
:103AB000E7F90546A8E004F0400028B1189810F88E
:103AC000041B1890C8B20DE004F0800028B11898CB
:103AD00030F8041B189008B204E018980068189990
:103AE000091D189182464FEADA70CDE903980296D3
:103AF0000594BAF1000F02DD514602E00BE0CAF175
:103B00000001CDE900102A463846DDE90C1300F02B
:103B1000B7F9054678E00E980078562818D118981D
:103B200050F804AB1890DAF804000068099009987E
:103B30000090DAF800300D98421B0C984119384675
:103B4000FFF708FE0544002009905DE0BD3F000836
:103B500004F40070D0B11898C01D20F00700CDE922
:103B60000698089418900020CDE9046002901899F6
:103B700003C9189A08321892CDE900012A4638463E
:103B8000DDE90C1300F0BAF905463DE004F480705D
:103B900098B10022CDE90398029605941898006820
:103BA0001899091DCDE9000218912A463846DDE929
:103BB0000C1300F065F9054626E004F0400028B13A
:103BC000189810F8041B1890C8B20DE004F080009B
:103BD00028B1189830F8041B189088B204E018989F
:103BE00000681899091D189182460020CDE900A0AF
:103BF000CDE90398029605942A463846DDE90C1370
:103C000000F03EF9054600BF0E98401C0E9093E070
:103C1000012604F0020050B905E02A466D1C202060
:103C2000DDE90C13B8473046761C4045F5D31899AA
:103C300011F8043BD8B22A466D1C1891DDE90C132B
:103C4000B84704F0020050B105E02A466D1C202060
:103C5000DDE90C13B8473046761C4045F5D30E9885
:103C6000401C0E9068E0189850F804AB189050462D
:103C7000B9F1000F01D0494601E04FF0FF310A468B
:103C8000014600E0491C0B781BB1131EA2F1010292
:103C9000F8D10E1A04F4806028B14E4501D23046A6
:103CA00000E04846064604F0020050B905E02A4606
:103CB0006D1C2020DDE90C13B8473046761C4045CA
:103CC000F5D306E01AF8010B2A466D1CDDE90C134A
:103CD000B8479AF8000040B104F480600028F1D0A1
:103CE000B9F10000A9F10109ECD104F0020050B1D2
:103CF00005E02A466D1C2020DDE90C13B84730464C
:103D0000761C4045F5D30E98401C0E9014E02A46D0
:103D10006D1C2520DDE90C13B8470E98401C0E9051
:103D20000AE02A466D1C0E990878DDE90C13B847A5
:103D30000E98401C0E9000BF00BF00BF0E98007888
:103D400000287FF410AD0D98854201D2284601E08D
:103D50000D98401E02460020DDE90C13B8472846A6
:103D60000FB0BDE8F08F2DE9FF4F85B08346DDE948
:103D7000158ADDE91349DDE91775129E05F0020089
:103D8000F8B94FB105F0010030B1B9F1000F02D11F
:103D900005F00C0000B17F1E03E030222046641CB9
:103DA0003254544501D2202CF7D303E03022204670
:103DB000641C325405F0010018B1BC4201D2202C21
:103DC000F4D305F01000B0B305F4806050B94CB1E5
:103DD000544501D0BC4205D1641E1CB1B8F1100F8E
:103DE00000D1641EB8F1100F09D105F0200030B9E0
:103DF000202C04D278222046641C325415E0B8F1FD
:103E0000100F09D105F0200030B1202C04D2582227
:103E10002046641C325408E0B8F1020F05D1202C72
:103E200003D262222046641C3254202C03D230225A
:103E30002046641C3254202C16D2B9F1000F04D055
:103E40002D222046641C32540EE005F0040020B1FF
:103E50002B222046641C325406E005F0080018B1FD
:103E600020222046641C3254CDE90275CDE900645D
:103E7000584606A90EC900F0A2F809B0BDE8F08FB7
:103E80002DE9FF4F8FB08046DDE91FABDDE91D96C0
:103E9000219D1C9C00270CB925F0100505F48060BD
:103EA00000B1E4B100BFB4FBF6F106FB1141C8B2AA
:103EB0000A2802DA00F1300107E005F0200109B11B
:103EC000412100E0612101440A39CBB239467F1C0F
:103ED00007AA5354B4FBF6F40CB1202FE3D307A880
:103EE000CDE904AB8DE8810203960695404610A902
:103EF0000EC9FFF738FF13B0BDE8F08F2DE9FF4F73
:103F00008FB0DDE9217BDDF89080209EDDE91C4546
:103F10004FF00009002184EA01006940084301D103
:103F200028F0100808F4806028B1002184EA01001C
:103F3000694008432DD000BF32463B462046294603
:103F4000FCF7D1F902F0FF0ABAF10A0F02DA0AF11E
:103F5000300007E008F0200008B1412000E06120B7
:103F600050440A38C2B2484609F1010907A90A5467
:103F700032463B4620462946FCF7B5F904460D4635
:103F8000002184EA01006940084302D0B9F1200F02
:103F9000D2D32398CDE9036BCDE9050807A91E9874
:103FA000CDE9001902900FA80FC8FFF7DCFE13B08F
:103FB000BDE8F08F9A4200D28854704770472DE9CF
:103FC000FF5F05461446DDE90EA6DDE91087A3462E
:103FD00007F0020078B907F0010060B9B14607E0C8
:103FE0002246641C2020039B0199A84709F101097E
:103FF000C145F5D300BF08E02246641C711E0E4681
:104000001AF80100039B0199A847002EF4D107F08C
:10401000020050B105E02246641C2020039B019958
:10402000A847A4EB0B004045F5D3204604B0BDE8FB
:10403000F09F00BF70472DE9FF4F84B0884691463E
:10404000DDF858C011990391129902910020CDE03A
:10405000DDF84CA00AFB00FADDF80CB00BEB2A2AC5
:10406000CDF844A0DDF850A00AFB00FADDF808B056
:104070000BEB2A2ACDF848A0DDF844A04FEA2A210C
:10408000DDF848A04FEA2A22002905DB414503DA82
:10409000002A01DB4A4504DB4FF0000A0CF800A0BF
:1040A000A2E0DDF844A00AF0FF03DDF848A00AF022
:1040B000FF04802B06DA4FF0FF35C3F17F0A4FEA89
:1040C0004A0304E00125A3F1800A4FEA4A03802C49
:1040D00006DA4FF0FF36C4F17F0A4FEA4A0404E0E3
:1040E0000126A4F1800A4FEA4A04049FDDF81CA0CF
:1040F00002FB0A1A574401EB050ABAF1000F46DB2E
:1041000001EB050BA8F1010AD34540DC02EB060ADE
:10411000BAF1000F3BDB02EB060BA9F1010AD34514
:1041200035DC97F800A017F805B0CDF804B0DDF83D
:104130001CB006FB0BFB17F80BB0CDF800B0DDF898
:1041400004B0D3450BD0DDF804B00BFB04FBC4F581
:10415000807E0AFB0EBBCBF3072BCDF804B0DDF855
:1041600000B0D3450BD0DDF800B00BFB03FBC3F56B
:10417000807E0AFB0EBBCBF3072BCDF800B0DDE948
:1041800000EBF3444FEA6B0B0CF800B02BE009B9DD
:10419000002D05DBA8F1010A8A450CD1002D0ADDAE
:1041A00097F800A0C3F1FF0B0AFB0BFACAF3072A2A
:1041B0000CF800A017E00AB9002E05DBA9F1010AEE
:1041C00092450CD1002E0ADD97F800A0C4F1FF0B38
:1041D0000AFB0BFACAF3072A0CF800A003E04FF021
:1041E000000A0CF800A000BF411C08B215998842D3
:1041F000FFF62EAF08B0BDE8F08F2DE9F041044680
:104200000E46002774B13146204600F02DF80546D1
:10421000B5F5803F05D20C2D01D9284600E00C20D1
:10422000074600BF3846BDE8F081024600BF481E81
:10423000084018B100BF00BF00BFFEE700BF481E26
:104240001040101A704710B502464B1E13444C1E06
:1042500023EA040000BF4B1E0B401BB100BF00BF90
:1042600000BFFEE700BF10BD024600BF481E084069
:1042700018B100BF00BF00BFFEE700BF481E1044DA
:104280004B1E9843704700002DE9F04780460E46CC
:10429000444601206086002500270DE056F82700DF
:1042A00028A1FCF7F1F810B1681C85B202E0608E1D
:1042B000401C6086781C87B256F8270020B156F85B
:1042C000270000780028E9D1208EA84201D1BDE85E
:1042D000F087A06A20B1A06A19F070F80020A062EF
:1042E000E06A20B1E06A19F069F80020E062E800B5
:1042F0001CF09AF9A06200BFA06A18B900BF00BF05
:1043000000BFFEE700BF68001CF08EF9E06200BF4E
:10431000E06A18B900BF00BF00BFFEE700BFA06A97
:1043200008B1E06A00B900254FEA450AD4F82C909C
:104330005246002148461CF038FB00BF258600BFCE
:10434000C5E700000A0000002DE9F84F81460E463F
:10435000924699F8090000F00700022801D1304682
:1043600000E050468346564501DD304600E05046A9
:104370000746032000EB470020F0030000F1100582
:104380003948006839490968A0EB0108002405EBA9
:10439000080037490968884206D2334804686068D3
:1043A00020F0004060603AE031480068854221D842
:1043B00013E04FF0FF300090002269462D480FF0C7
:1043C00039FB002269462C480FF034FB2648006870
:1043D00026490968A0EB010800BF08EB0500244945
:1043E00009688842E5D820480468606820F00040E9
:1043F000606014E028461CF017F9044600BF1CB9A1
:1044000000BF00BF00BFFEE700BF14B90020BDE839
:10441000F88F606820F0004000F100406060324694
:104420005946484602F047FC2060606800F0404072
:10443000401C6060606820F080406060A781A4F844
:104440000EB06068C00F20B1204600F11001A160DD
:1044500008E0054800681030A06003480068284460
:10446000014908602046D2E758000020F8000020EB
:104470005400002061050108B53A0108F0B585B087
:1044800006460D463446002004900390029065488D
:104490000088A84202D0FF20634908706148058067
:1044A00094F83C0000F0030020B1012838D0022825
:1044B00066D000BF94F83C0000F003005A49097828
:1044C00088421BD02620005D00EB001000EB40006E
:1044D000142190FBF1F0554908702720005D00EB96
:1044E000001000EB4000142190FBF1F050490870DF
:1044F00094F83C0000F003004B49087002A803A99F
:10450000CDE9001005EB45014FF6FF7202EA4100CC
:1045100004AB47490A78454909780BF09DFC5FE0F8
:1045200094F83C0000F003003F49097888421AD013
:10453000A08C00EB400040024FF4B471B0FBF1F0EE
:104540003C4908802720005D00EB001000EB400094
:10455000142190FBF1F03649087094F83C0000F00B
:1045600003003149087002A803A9CDE90010E9B29F
:1045700004AB2F4802782F4800880BF06DFC2FE029
:1045800094F83C0000F003002749097888421AD0CB
:10459000A08C00EB400040024FF4B471B0FBF1F08E
:1045A000244908802620005D00EB001000EB40004D
:1045B000142190FBF1F01D49087094F83C0000F0C4
:1045C00003001949087002A803A9EAB204ABCDE9B7
:1045D000001016480178174800880BF03DFC00BF1A
:1045E00000BF9DF810009DF80C109DF80820D7081A
:1045F000BDF8003067F304038F080093BDF8003066
:1046000067F34A13C7080093BDF8003067F3CF2360
:104610000093BDF800703B460193BDF804100846B6
:1046200005B0F0BDE4010020E2010020E00100201F
:10463000E1010020DE01002010B5012007490870CB
:104640000748FEF731FB20B90648006826F05AF803
:1046500003E00448006826F061F810BD98000020CF
:10466000E00A00209C00002010B5044694F84800A1
:1046700000F0010070B9B4F8400000280ADDB4F879
:1046800040004FF6FF71884204D0B4F84000401E4D
:10469000A4F84000B4F84000D0B9A06B20B194F861
:1046A000480000F0010098B121461948FEF77BFB55
:1046B000FFF7C2FFE06810B12046E1688847206933
:1046C00010B1204621698847204618F077FE1EE089
:1046D000E06B40422063A06BC8B194F8481001F031
:1046E000010111B9616B4942216394F84810C94333
:1046F00094F8482061F3000284F84820206AA16AF7
:104700002162A062E06AA16BE162A06300BF10BDFC
:10471000E00A00202DE9F04180464148007880F011
:1047200001003F4908703F48FEF7BEFA044673E0B7
:10473000606C25F03BFE064625F046FE60640020D6
:104740003949087094F84800C0F3400034490978AA
:10475000884253D0324801783034207E61F34100E2
:10476000207620688719207E303CC0F3800010BB83
:10477000206B00281FDC002F1DDB94F8420000F0A6
:10478000010060B9606950B12046616988470546FB
:10479000206A28442062A06A2844A06200BFA06862
:1047A00010B12046A168884794F8480020F0040022
:1047B000001D84F84800206B30442063206B0028E3
:1047C0001BDBD4E90B10884201DDE06A2063204640
:1047D000E16988470546606AA84206D0656260685C
:1047E00018B12946D4E900029047D4E90B10884259
:1047F00002DB2046FFF738FF00BF00BF0A48007801
:1048000020B10848FEF750FA044604E02146054866
:10481000FEF762FA044600BF002C89D1BDE8F081A2
:1048200099000020E00A00209800002070B504469E
:104830000D46606818B129466068FFF7F7FF2068E9
:1048400018B1294620462268904770BD70B50546CC
:104850000C4626682068006858B120688069C0F35B
:10486000005030B120680068206021462846FFF7DC
:10487000EDFF266021462846FFF7D8FF70BD70B5D2
:1048800005460C46A1B2284610F01BFC70BD70B561
:1048900005460C46A1B2284610F013FC70BD70B559
:1048A00005460C46A1B2284610F05CFC70BD000025
:1048B0002DE9F04F95B00446002570E03A480068B5
:1048C0000FF0D2FF8246504621F0FCFA14F0E6FACF
:1048D000834614F013FB064600EBD6704110062009
:1048E00028F06CFE0FFA80F814F0D8FA834614F022
:1048F00005FB074600EBD7704110062028F05EFE4E
:104900000FFA80F942464946504621F067FE4FF4BF
:104910000032214650461CF0D6FC2449002028F0E5
:104920004DFE064613F0D7F84FF4003201460090D2
:10493000504621F078FF0021504610F013FCFA2178
:10494000322028F03BFE149001A80FF029FE5146BA
:1049500001A80FF0EFFE164901A80FF0B1FE4FF4C9
:1049600096711E2028F02AFE064640F26712314654
:1049700001A80FF0D5FE01A814990FF0BBFE01A805
:1049800014990FF0A5FE4FF6FF7101A80FF0A7FED6
:1049900001A80FF0E3FE50460BF000FA6D1C082D45
:1049A0008CD315B0BDE8F08FF8080020F0FFFF00B1
:1049B0008F48000810B50A4823F00BFE0D21084867
:1049C00023F04AFE0748007808B17F2000E0FF206E
:1049D0000146034823F02CFE0148FFF769FF10BD94
:1049E0005C0200206402002010B50A4823F0F1FDAB
:1049F0000221084823F030FE0748007808B17F20E4
:104A000000E0FF200146034823F012FE0148FFF7B3
:104A10004FFF10BD5C020020640200202DE9FF4F13
:104A20008FB01F461C980E901D980D902398092852
:104A300004D00D280CD00E280FD104E000200C90DB
:104A400002200B900CE001200C9003200B9007E05B
:104A500001200C9002200B9002E013B0BDE8F08F13
:104A600000BF002469E11E9860430E9901EB2020ED
:104A70001C901F9860430D9901EB20201D901C98FD
:104A800005121D980612002D07DB1098854204DAE6
:104A9000002E02DB1198864203DB0021229801558B
:104AA00049E11C9800F0FF081D9800F0FF09B8F1DB
:104AB000800F06DA4FF0FF3AC8F17F004FEA400856
:104AC00005E04FF0010AA8F180004FEA4008B9F173
:104AD000800F06DA4FF0FF3BC9F17F004FEA400933
:104AE00005E04FF0010BA9F180004FEA40090F9853
:104AF0000A9006FB07F00B99484305FB01010A9851
:104B000008440A9005EB0A00002873DB05EB0A0154
:104B10001098401E81426DDC06EB0B000028F4DB90
:104B200006EB0B011198401E8142F4DC0A980990B3
:104B3000DDE90A010AFB010008900BFB07F1DDE942
:104B40000A0201FB020007900C9800286CD0239801
:104B50000E2809D1099880780390079880780290F0
:104B60000898807801901DE023980D2816D1119A9D
:104B700007FB02F10F9A02EB410006FB0701495DBA
:104B8000039106FB0701294411F80A10019106EB75
:104B90000B0101FB0701495D029103E0FF20039037
:104BA00002900190DDE9020188420AD0029800FBE0
:104BB00009F0C9F58072039901FB0200C0F30720D8
:104BC00002900399019888420AD0019800FB08F0EE
:104BD000C8F58072039901FB0200C0F30720019021
:104BE000DDE9011008444110229801552298005D2A
:104BF00008B9A0E050E009980278407802EB002163
:104C000006A813F0C7FA07980278407802EB002153
:104C100005A813F0BFFA08980278407802EB00214B
:104C200004A813F0B7FA0BE00998008806900898DA
:104C300000880490079800880590FF21229801556C
:104C4000DDE9051012F05FFC58B10499069812F0E6
:104C50005AFC30B1219800EB4400BDF818100180D7
:104C600019E009F0FF02DDE9050113F0B1F8059044
:104C700008F0FF020699049813F0AAF804907F2226
:104C8000DDE9040113F0A4F80390219800EB44003F
:104C9000BDF80C1001804DE00A9A1378527803EBAE
:104CA0000221219A02EB440013F074FA23980D2894
:104CB00005D00E280ED10A98807809900DE0119940
:104CC00007FB01F00F9901EB400006FB0700405D78
:104CD000099002E0FF20099000BF00BF15B9BAF1AA
:104CE000000F06DB1098401EA8420BD1BAF1000F4E
:104CF00008DDC8F1FF0009994843C0F30721229855
:104D0000015516E016B9BBF1000F06DB1198401EE5
:104D1000B0420BD1BBF1000F08DDC9F1FF000999CA
:104D20004843C0F307212298015502E00021229850
:104D3000015500BF00BF601C04B220988442FFF6FA
:104D400092AE00BF89E62DE9FC5F06468946924691
:104D50009B460C9801900D980090002435E00E9829
:104D60006043019901EB20200C900F98604300995B
:104D700001EB20200D900C9807120D984FEA202887
:104D8000002F06DB4F4504DAB8F1000F01DBD045F8
:104D900003DB00211298015515E0354608FB0BF0A6
:104DA00000EB400007EB4701084405442A786B7884
:104DB00002EB0321119A02EB440013F0EBF9A978FE
:104DC0001298015500BF601C04B210988442C6DBE3
:104DD000BDE8FC9F30B593B004462546A88F18B9AE
:104DE000204627F059F91EE068460FF0D9FB294606
:104DF00068460FF09DFC0D4968460FF05FFCA98FD7
:104E000068460FF075FC0122002168460FF084FC13
:104E1000074968460FF058FC0648039000BF6846F3
:104E20000FF09CFC00BF13B030BD000021C1020890
:104E30008B46010823C1020870B50446204618F0CD
:104E40004DF805462F2D03D125F0BEFA0149086023
:104E500070BD00006C02002070B514F01FF805460C
:104E6000002410E02146284614F038F80646304663
:104E700018F02AF80749884204D12146284614F040
:104E8000E7F870BD641C284614F01AF8A042E9D86F
:104E900000BFF6E7394E0008F8B513F0FFFF0446EF
:104EA00000231A463E49204613F0E4FE3D49206A9D
:104EB00008603D4820623D480078022817D1D4F8A8
:104EC000A40148B1D4F8A40100683949086002215E
:104ED000D4F8A40125F025FC0FF05CFB054635490C
:104EE000286808600221284625F01BFC00BF22F03C
:104EF000ABFB0646304620F0E5FF0022FF2130469E
:104F000021F0C9FC30461AF027F82B49086004222A
:104F100011462948006821F00BFB28A126480068AB
:104F20001AF0F0FF30461AF017F825490860002003
:104F300003460D22009020480168214800681CF0BB
:104F400057FA1EA11E4800681AF0DCFF30461CF01C
:104F500085FF1C4908600846006820F0B3FF304612
:104F60001DF060FC16490968498B401A001F05B204
:104F700030461FF01AFC07462A4639461148006899
:104F800021F02CFB00231A4605210E4800681CF076
:104F90001DFA0D4823F093F9304621F003FEF8BDC9
:104FA000394E000870020020F9F90008580200206C
:104FB0007402002078020020FC080020000000009D
:104FC00000090020F80800205C02002070B50446AB
:104FD0000D4600BF204600F03BF818B100BF00BFEF
:104FE00000BFFEE700BF284600F050F9001D6168D1
:104FF00008446060204600F03AF8204670BD70B565
:1050000005460C46284600F041F904F1100188429B
:1050100001D3012070BD0020FCE70146A1F108008A
:1050200070477CB505460C46204600F02FF9064631
:105030006A4601A926F04FFC21462846DDE90032E8
:105040000DF0E8FF7CBD0146087900F001007047D3
:1050500010B50446204600F019F908B9012010BD2A
:105060000020FCE70146087900F00200704770B5A7
:105070000446204600F097F805462C60284670BD8F
:105080007CB506460C4600200190009000256CB1CE
:105090006A4601A9204626F03BFC01980A2805DA59
:1050A0006A4601A9304628F084FD054685B100BF57
:1050B000284600F0EBF8A04203D200BF00BF00BFBB
:1050C000FEE700BF29463046DDE9003228F0CCF883
:1050D00028467CBD70B504462046FFF7C8FF05464C
:1050E000284600F0BEF8204600F0B6F870BD70B556
:1050F0000446204600F057F80546284600F0B6F86A
:10510000204600F0BEF870BD70B506460D46284634
:1051100000F049F8044600BF1CB900BF00BF00BF43
:10512000FEE700BF2046FFF78EFF90B100BF284684
:10513000FFF78EFF18B100BF00BF00BFFEE700BF42
:105140002146304600F076F821462846FFF73EFF1C
:105150000546284670BD70B506460D462846FFF741
:1051600081FFF0B1284600F057F8044600BF1CB993
:1051700000BF00BF00BFFEE700BF00BF2046FFF733
:1051800062FF18B900BF00BF00BFFEE700BF2146A5
:10519000304600F04FF829462046FFF717FF054636
:1051A00000BF284670BD2DE9F0410446204600F0BE
:1051B0006DF8061F204600F0B8F80746314626F085
:1051C0004DFE054600BF2046FFF742FF18B100BF65
:1051D00000BF00BFFEE700BF2846BDE8F0812DE913
:1051E000F04106460C461546002794B100BF1DB994
:1051F00000BF00BF00BFFEE700BF2A462146304681
:1052000000F097F82046FFF772FF204600F08DF877
:1052100007463846BDE8F08110B5044600BF204679
:10522000FFF720FF18B900BF00BF00BFFEE700BFB7
:10523000206810BD7CB505460C46204600F026F8D7
:1052400006466A4601A926F046FB21462846DDE9C6
:10525000003228F009F87CBD416841F0010141604D
:105260007047416841F0020141607047416821F098
:10527000020141607047426802F003030B43436040
:105280007047416821F0010141607047014648685C
:1052900020F0030070472DE9F04706460C463046E3
:1052A00000F043F88046211F26F0D8FD074630461F
:1052B000FFF7ECFF211D451A00BF384600F035F816
:1052C0008146384600F031F880460421FEF7BBFFE6
:1052D000814503D000BF00BF00BFFEE700BF00BF95
:1052E0003046FFF7D3FF2919091D884203D000BFBC
:1052F00000BF00BFFEE700BF29463846FFF7BBFFEF
:1053000000BF3846FFF7C2FF0C2803D200BF00BF22
:1053100000BFFEE700BF21463046FFF7ACFF38462E
:10532000FFF7D8FE3846BDE8F087014601F10800D6
:1053300070472DE9F04106460C46154600BF204651
:10534000FFF781FE18B900BF00BF00BFFEE700BF36
:1053500029462046FFF753FE78B129462046FFF73D
:105360009AFF07462046FFF782FE3846FFF779FF8F
:1053700039463046FFF755FE00BFBDE8F0812DE904
:10538000F04106460C46154600BF2046FFF75BFE7F
:1053900018B100BF00BF00BFFEE700BF294620468E
:1053A000FFF72DFE88B129462046FFF774FF074618
:1053B0003846FFF75BFF39463046FFF7A5FE074644
:1053C00039463046FFF72DFE00BFBDE8F0810000F2
:1053D00010B50A4823F0FDF80321084823F0A9F985
:1053E0000748007808B17F2000E0FF20014603480D
:1053F00023F081F9014826F09BFE10BD5C020020DD
:105400006402002010B50D4823F0E3F847F6FF7161
:105410000A4823F06DFB0321084823F08AF9084865
:10542000007808B17F2000E0FF200146034823F008
:1054300062F9024826F07CFE10BD00005C020020EC
:105440006402002010B50E4823F0C3F808210C4870
:1054500023F04EFB03210A4823F06BF9094800783A
:1054600008B17F2000E0FF200146054823F043F902
:105470000421034823F053F9014826F059FE10BDDA
:105480005C0200206402002010B50E4823F0A1F851
:1054900008210C4823F02CFB03210A4823F049F98A
:1054A0000948007808B17F2000E0FF200146054848
:1054B00023F021F90C21034823F031F9014826F0AB
:1054C00037FE10BD5C0200206402002010B50C48BD
:1054D00023F07FF808210A4823F00AFB032108483B
:1054E00023F027F90748007808B17F2000E0FF206B
:1054F0000146034823F0FFF8014826F019FE10BDCD
:105500005C0200206402002010B50E4823F061F810
:1055100008210C4823F0ECFA03210A4823F009F98A
:105520000948007808B17F2000E0FF2001460548C7
:1055300023F0E1F80321034823F0F1F8014826F0B5
:10554000F7FD10BD5C0200206402002010B50E487B
:1055500023F03FF808210C4823F0CAFA03210A4837
:1055600023F0E7F80948007808B17F2000E0FF2029
:105570000146054823F0BFF80221034823F0CFF885
:10558000014826F0D5FD10BD5C0200206402002019
:1055900010B50E4823F01DF808210C4823F0A8FA96
:1055A00003210A4823F0C5F80948007808B17F2094
:1055B00000E0FF200146054823F09DF8062103483E
:1055C00023F0ADF8014826F0B3FD10BD5C020020C9
:1055D000640200202DE9F8430646344619F0A0F98C
:1055E0008046404619F0E3F978BB304617F0B1F930
:1055F00038B3304617F029F8208FE18E884212D058
:10560000E08E2087E08E00906A461D21304620F013
:1056100055FE0746012F02D03846BDE8F8833046D4
:105620001FF0A3FC00BF404619F0CFF90546042D3A
:1056300006D130461DF0ECF80746002118F03EFB7D
:1056400009E0304617F0E8F905E0FFE7208FE08633
:1056500030461FF08AFC0120DFE72DE9F0410446C7
:10566000204617F0B9FC054628461DF03EF90646CF
:10567000284610F043FE074601223946304624F002
:1056800067F8BDE8F0810146C1F30020704701468C
:10569000C1F3C01070470146C1F3002070470146B6
:1056A000C1F3402070470146C1F300107047014626
:1056B000C1F3801070470146C1F380207047014656
:1056C000C1F3C02070470146C1F34010704700008D
:1056D0002DE9F04F89B004460D46002120461CF00C
:1056E000CFFF30B91C2128461BF012FA09B0BDE8E3
:1056F000F08F2946204600F0E5FA2946204600F0C2
:105700007DF8002120461EF073FA08900021204603
:105710001EF0A6FB0790002120461DF07DFF01280A
:1057200000D100E000208146002120461EF004FF49
:105730000746002120461EF0B7F8064642F2D17017
:10574000874205D1608CC0F3802008B9012000E0B9
:105750000020824620461DF00CF8069000BF4FF056
:10576000000824480288414620461EF021FC039090
:105770000398C0B200BF8346AA6829692868CDE9AA
:105780000209CDE900125A465146089B06980CF0D2
:1057900069FF288342F2D170864205D1608CC0F344
:1057A000402008B9012000E00020059020461CF0B0
:1057B000CBFF049000BF4FF000080F48028841461D
:1057C00020461EF0F5FB03900398C0B200BF83464D
:1057D0000023EA6869686869CDE90213CDE900022F
:1057E0005A46079BDDE904010CF03CFF688300BFCB
:1057F0007CE70000860000208A0000202DE9F34F9E
:1058000087B00C4607980BF04DFF804607981CF0B8
:10581000B0FF0690404601F00CFD20612169480070
:105820001AF002FF2060216948001AF0FDFEA06016
:10583000002548E05848029038F9150041F69A7161
:1058400088423FD10020019029E0019907981CF07F
:1058500017FF0090514900981FF015F800B11BE0A8
:1058600000980BF03DFF8246BAF1010F00D013E023
:1058700000980BF025FF8346AB4500D00CE0009864
:105880001EF093FF0299884201DA029802E0009824
:105890001EF08BFF029000BF0198401C01900798FA
:1058A0001CF00CFF01998842CFD80298002804DB35
:1058B0000298A16821F8150003E00021A06820F8F3
:1058C000151000BF6D1C2069A842B3D80026B14650
:1058D00000251BE038F9150041F69B71884202DB78
:1058E000411A0E4411E041F69A71884206D1A1682E
:1058F00031F8151049440FFA81F906E0A16821F842
:10590000150009EB00010FFA81F96D1C2069A8420E
:10591000E0D8002107981EF06BF905902169491E17
:10592000DDE9050200FB112000B206900698A0EB0D
:10593000090007B2002F00DA00274FF0FF30049073
:1059400000200390002513E038F9150041F69B7103
:1059500088420CDB421A11B207FB01F2B2FBF6F2ED
:1059600012B2A36823F815200495039100BF6D1CA3
:105970002069A842E8D8049800280ADB0398301A66
:105980007843B0FBF6F0381A01B2A268049822F806
:10599000101009B0BDE8F08F01E0FFFF0100060024
:1059A0002DE9FC5F044600221146204620F048FC09
:1059B000002120461EF065FC8246002120461EF094
:1059C000A9FB074620461DF089FD504438440FFAD4
:1059D00080FB374D20461CF071FE01904FF000080F
:1059E00055E0DFF8CC90A068006850F82860314995
:1059F00030461EF048FF00B147E030461FF02CFB58
:105A000068BB002130461DF09AFD0090009830B12F
:105A1000012807D0022804D003280AD100E000BFE3
:105A200000BF00BF718BE08A081A401C0FFA80F992
:105A300013E0002130461EF0AFFD68B906F11400F6
:105A40000FF06CFC50440FFA80F9002130461DF035
:105A5000C7FF48440FFA80F900BF00BF05E0718B13
:105A6000E08A081A401C0FFA80F9002130461DF028
:105A70004BFF4844A84201DA284604E000213046A2
:105A80001DF042FF484405B200BF08F1010801982B
:105A90008045A6D30648854202D15846BDE8FC9F02
:105AA000E819584501DA584600E0E81900B2F5E770
:105AB00001E0FFFF010004002DE9FC5F0646002223
:105AC0001146304620F0A0FB002130461EF09CFB22
:105AD0008046002130461EF05AFB814630461DF0BC
